:020000040800F2
:1000000000000220E1050008DD050008F5410008B8
:10001000DD050008DD050008DD0500080000000022
:10002000000000000000000000000000DD050008E6
:10003000DD05000800000000DD050008794100082A
:10004000DD050008DD050008DD050008DD05000808
:10005000DD050008DD050008DD050008DD050008F8
:10006000DD050008DD050008DD050008813D00080C
:100070008D3D000851260008993D0008A53D000867
:1000800081EF000869320008DD050008DD05000881
:10009000DD050008DD050008DD050008DD050008B8
:1000A000DD050008DD050008DD050008DD050008A8
:1000B00099E30008A5E30008B1E300089D320008B9
:1000C000DD050008A9320008DD05000809DC00088C
:1000D00015DC0008B5ED0008E1ED000815EE00089C
:1000E000DD050008DD05000800000000DD05000852
:1000F000DD050008DD050008DD050008DD05000858
:10010000DD050008DD050008BDE3000821DC00086E
:1001100049EE00087DEE00081D290008DD050008F5
:10012000052900081129000845DC000879DC0008D1
:10013000B5EF0008DD050008DD050008DD05000855
:1001400000000000000000000000000000000000AF
:10015000DD050008DD050008DD050008B1EE00083A
:10016000B5320008DD05000889410008AD410008EE
:10017000DD050008D1410008DD050008DD050008A7
:10018000DD050008DD050008E5EE000819EF0008B0
:100190002DDC000839DC0008DD050008DD0500085D
:1001A000DD050008DD050008DD050008DD050008A7
:1001B000A13A0008DD050008DD050008DD0500089E
:1001C000DD050008DD050008DD050008DD05000887
:1001D000DD050008DD050008DD050008DD05000877
:1001E000DD050008DD050008DD050008DD05000867
:1001F000DD050008DD050008DD050008DD05000857
:10020000DD050008DD050008DD050008DD05000846
:10021000DD050008DD050008DD050008DD05000836
:10022000DD050008DD050008DD0500080000000010
:10023000DD050008DD05000800000000DD05000800
:10024000DD050008DD050008DD050008DD05000806
:10025000DD050008DD050008DD050008DD050008F6
:10026000DD050008DD050008DD050008DD050008E6
:10027000DD050008DD0500084DEF00080000000066
:10028000DD050008DD050008DD05000800000000B0
:0802900000000000DD0500087C
:1002980010B5054C237833B9044B13B10448AFF3B8
:1002A80000800123237010BD90030024000000008B
:1002B800541C010808B5034B1BB103490348AFF3AD
:1002C800008008BD0000000094030024541C0108AD
:1002D80053B94AB9002908BF00281CBF4FF0FF31A5
:1002E8004FF0FF3000F074B9ADF1080C6DE904CEA1
:1002F80000F006F8DDF804E0DDE9022304B07047F9
:100308002DE9F047089D04468E46002B4DD18A42C0
:10031800944669D9B2FA82F252B101FA02F3C2F1F3
:10032800200120FA01F10CFA02FC41EA030E944084
:100338004FEA1C48210CBEFBF8F61FFA8CF708FBA5
:1003480016E341EA034306FB07F199420AD91CEB7D
:10035800030306F1FF3080F01F81994240F21C81AF
:10036800023E63445B1AA4B2B3FBF8F008FB1033F7
:1003780044EA034400FB07F7A7420AD91CEB04042C
:1003880000F1FF3380F00A81A74240F207816444FC
:10039800023840EA0640E41B00261DB1D440002381
:1003A800C5E900433146BDE8F0878B4209D9002DE5
:1003B80000F0EF800026C5E9000130463146BDE86F
:1003C800F087B3FA83F6002E4AD18B4202D38242D9
:1003D80000F2F980841A61EB030301209E46002D88
:1003E800E0D0C5E9004EDDE702B9FFDEB2FA82F2DD
:1003F800002A40F09280A1EB0C014FEA1C471FFA3B
:100408008CFE0126200CB1FBF7F307FB131140EA21
:1004180001410EFB03F0884208D91CEB010103F1EE
:10042800FF3802D2884200F2CB804346091AA4B2B0
:10043800B1FBF7F007FB101144EA01440EFB00FE84
:10044800A64508D91CEB040400F1FF3102D2A645E9
:1004580000F2BB800846A4EB0E0440EA03409CE788
:10046800C6F12007B34022FA07FC4CEA030C20FA35
:1004780007F401FA06F31C43F9404FEA1C4900FA55
:1004880006F3B1FBF9F8200C1FFA8CFE09FB1811D2
:1004980040EA014108FB0EF0884202FA06F20BD945
:1004A8001CEB010108F1FF3A80F08880884240F295
:1004B8008580A8F102086144091AA4B2B1FBF9F0D9
:1004C80009FB101144EA014100FB0EFE8E4508D9D4
:1004D8001CEB010100F1FF346CD28E456AD9023859
:1004E800614440EA0840A0FB0294A1EB0E01A1423E
:1004F800C846A64656D353D05DB1B3EB080261EBAC
:100508000E0101FA07F722FA06F3F1401F43C5E985
:10051800007100263146BDE8F087C2F12003D840BB
:100528000CFA02FC21FA03F3914001434FEA1C47FD
:100538001FFA8CFEB3FBF7F007FB10360B0C43EAEF
:10054800064300FB0EF69E4204FA02F408D91CEB9F
:10055800030300F1FF382FD29E422DD9023863449D
:100568009B1B89B2B3FBF7F607FB163341EA03413D
:1005780006FB0EF38B4208D91CEB010106F1FF388C
:1005880016D28B4214D9023E6144C91A46EA004683
:1005980038E72E46284605E70646E3E61846F8E615
:1005A8004B45A9D2B9EB020864EB0C0E0138A3E75E
:1005B8004646EAE7204694E74046D1E7D0467BE73F
:1005C800023B614432E7304609E76444023842E7B7
:1005D800704700BFFEE700BF0B480C4A904203D0AB
:1005E800121A0B4911F02AFA0A480B4A904203D012
:1005F800121A002111F030FA04F052F811F0FAF949
:1006080000F016F9FEE700BF000000249003002464
:10061800881C010890030024A4340024704700BFFC
:10062800704700BF2DE9F041804673481546734C6A
:100638000F4600F075FB704800F07EFB08216E48FD
:1006480000F07CFB06216C4884ED000A00F076FB84
:100658000721694884ED010A00F070FB092166480A
:1006680084ED020A664E00F069FB0A21624884EDB7
:10067800030A00F063FB00215F4884ED040A00F0E0
:100688005DFB01215C4886ED000A00F057FB022162
:10069800594886ED010A00F051FB0321564886EDC2
:1006A800020A00F04BFB0421534886ED030A00F0D0
:1006B80045FB0521504886ED040A00F03FFB86ED16
:1006C800050A504E304601F003FD4F4801F000FD89
:1006D800B37AFF2B02D14D4B01221A704A4B9B7AF9
:1006E800FF2B02D1494B00221A704948494E01F0AC
:1006F800C1FC002876D13178002969D1404BDFED63
:10070800467A03F11802B3EC017A9A4277EE877AB7
:10071800F9D1DFED416A94ED007A94ED015A37EE94
:10072800267AD4ED025A94ED036AD4ED046A37EEC2
:10073800057A37EE257A37EE067A37EE267A11B93A
:10074800324B1B78C3B10121344802F041FB8DB113
:10075800D8F800303C68D8F8040003EB850C7968B9
:1007680053F8042B44F8042B634550F8042B41F844
:10077800042BF5D1BDE8F081F1EE084A284AB1EE24
:10078800045A9FED286A1368F6EE005AC7EEA46A69
:10079800224801331360244AC7EE057AA2FB0312EC
:1007A8006421520901FB123336EEA77A07EE903A1C
:1007B800F8EEE77A27EE257A27EE067AF4EEC77A7E
:1007C800F1EE10FA4CBF0121002102F001FBBEE757
:1007D80003F07CFD154B1B68C01A642809D9002159
:1007E80031708BE70123337003F070FD0F4B1860F5
:1007F80081E7317882E700BFF00300240400002479
:10080800D0030024B0030024C0030024F40500240E
:10081800A0050024E803002400000000E0050024EF
:10082800AC0300240000C8421F85EB51EC030024F0
:1008380000B51C4885B000F0C9F80421194800F03B
:1008480017FA0321174800F03DFA174A0023174802
:1008580011785278009341EA0221012202F0C6F988
:10086800012204230F488DF808208DF8093000F084
:1008780053FA02990E4801F011FC02220B23094891
:100888008DF80C208DF80D3000F046FA03990948D0
:1008980001F004FC0849034800F0E6F9012003F0E0
:1008A80017FDFBE7F0030024BC1A0108E00500244B
:1008B800B0030024C00300242D06000870B51248B8
:1008C80000244FF60B75114E114A124904628462D6
:1008D800C0E90344C0E96C54C0E96E44C0E97254ED
:1008E800C0E9744411F072F8094A31460A4811F017
:1008F8006DF8074A3146094811F068F8084BC3E912
:100908000054C3E9024470BDF00300242506000822
:100918000000002429060008B0030024C0030024B6
:10092800E005002400294ED0274BF0B5D0E900247B
:10093800481E03F10C0E951C03F1100C4E00AC423E
:1009480018BF052802EB41058CBF01200020624535
:1009580038BFAE452CBF01270027384227D0264490
:10096800644538BFB64522D39D890026D8894FEA09
:10097800510E65F30F06A44602EB8E0E65F31F4673
:10098800002560F30F0560F31F45104640F8046B1F
:1009980070454CF8045BF9D121F00100C90705D571
:1009A800998922F81010DB8924F81030F0BD023A3A
:1009B800023C023D998922F8021FAA42D98924F8EB
:1009C800021FF7D1F0BD7047F80500242DE9F04368
:1009D80040F20113964A012706462DED028BDDB041
:1009E800C0F8EC21ADF81C30002306978DF81E30B6
:1009F80003F00CFE044603F06DFC06A9054600282A
:100A080040F00081002C00F0FD8030468DF81E700B
:100A180003F082FD072C0DF198080DD0854906F1E9
:100A28000C00854B854ACDE92613012341462892BF
:100A3800ADF8A43002F0ACFE032201234FF0000908
:100A48001CA904A806F11005CDF870904446CDF80D
:100A580010905CAFCDE9202300220123CDE92223A9
:100A6800774B01221D9303F1007303F540731E9326
:100A78004FF44173ADF87C300023CDE9242303F013
:100A880007FA01230CA905A80C930E931023CDF89F
:100A980014908DF840306B4BCDF83C900D9302F0DC
:100AA8000BFC059906F1200000F062F94FF07E5327
:100AB8003020049A0A9308A90B930323CDE908036D
:100AC800284601F047F9284601F08EF92846B0EE8D
:100AD800408A01F077F9D0ED007A0DF1580CDFF873
:100AE80084E1F8EE677A6546BEE80F0088EE277A5B
:100AF800ACE80F009EE803008CE8030086ED7A7AE4
:100B080035F8023B204612340222ADF80C30039926
:100B180001F00CFBA742F3D106F1140704230C22C1
:100B28004146384606F1300500249FED478A01F01A
:100B380011FB09E001F032FD96ED7A0A01462846DC
:100B4800013401F0FFF92035072CE1B23846F1D91C
:100B5800E1B2013401F022FD00230146F0EE480A1B
:100B680028461A4696ED7A0A01F0BAF90C2CEAD111
:100B78003046364B40F82C3F02F034F9344B012212
:100B880006F5D870196801F063FA324B012206F5B0
:100B9800E470196801F05CFA2F4B06F5F070C6F89E
:100BA800E03102F01FF92D4B06F5F270C6F8E4317A
:100BB80002F018F90123D6F8EC0111A9CDE9133395
:100BC800022310301293002315934BF680331193B0
:100BD80001F038FF384601F0CBFCD6F8EC41237D14
:100BE80004F11005FBB928461D4D2368D4E901120C
:100BF800009501F0A5FF012323755DB0BDEC028BC4
:100C0800BDE8F083304603F087FC25B106F1080003
:100C180000F0B0F9FEE6002C7FF4FCAE06F1080007
:100C280000F0A8F9F6E6284601F0C0FFDBE700BFB0
:100C3800F80500240508050905070506050A06063E
:100C480004020404010A010B6F12033B02070100AE
:100C5800C41A0108C01A0108020E0100020D0100A1
:100C68002D090008701A0108103001F005B900BFFD
:100C7800F8B500F11007054600F1300400F5D87604
:100C880038462DED028B01F0A1F8384601F0ACF89A
:100C98003846B0EE408A01F095F8D0ED007AF8EECB
:100CA800677A88EE270A85ED7A0A01E095ED7A0AD7
:100CB8002046203401F0A0F9B442F7D1BDEC028BF4
:100CC800F8BD00BFF8B500F11007054600F1300483
:100CD80000F5D87638462DED028B01F089F83846B4
:100CE80001F082F83846B0EE408A01F06BF8D0ED9A
:100CF800007AF8EE677A88EE270A85ED7A0A01E02D
:100D080095ED7A0A2046203401F076F9B442F7D1FD
:100D1800BDEC028BF8BD00BF90ED7A0A704700BFAA
:100D280038B500F1300400F5D8752046203401F0BC
:100D38003FF9AC42F9D138BD704700BF00EB411113
:100D480091ED0F0A704700BF07490022074B01F1D8
:100D5800600010B4302459601A611C601A755DF87F
:100D6800044BC3E90202704700000030F805002474
:100D7800F0B58C2387B00160002203710124FA26A4
:100D8800194605AB8DF8142002964022009323469D
:100D98000194054602F026FB002840F09B809DF850
:100DA80014300DF117074022284603F07F030097FF
:100DB800CDE901468DF814308DF81730234629798E
:100DC80002F036FB002840F08580042003F080FA0A
:100DD80005AB4022284600932346CDE901462979F0
:100DE80002F000FB002875D19DF8143040220097CE
:100DF800284603F0BF03CDE901468DF814308DF87D
:100E080017302346297902F013FB002862D1042009
:100E180003F05EFA0DF1150343222846009323469A
:100E2800CDE90146297902F0DDFA002852D10DF109
:100E380016034822284600932346CDE9014629791E
:100E480002F0D0FA002845D19DF8153043220097CA
:100E5800284643F001038DF815308DF817309DF8BA
:100E6800163043F00103CDE901468DF816302346CC
:100E7800297902F0DDFA68BB9DF816304822009700
:100E880028468DF817302346CDE90146297902F026
:100E9800CFFAF8B905AB4022284600932346CDE99E
:100EA8000146297902F09EFAA0B99DF8142023463C
:100EB8000194284602F0CF0402960097402229792F
:100EC8008DF814408DF8174002F0B2FA003818BFB8
:100ED800012000E0012007B0F0BD00BFF0B51023ED
:100EE80087B0234C012200250126002702A92046AD
:100EF8000195CDE902234FF48052CDE904670AF049
:100F0800E3FC642003F028FE02A94FF48052204637
:100F1800CDE9046702261027CDE902670AF0D4FC60
:100F28000322102302A92046CDE90223002304222C
:100F3800CDE904234FF480520AF0C6FC40F2322374
:100F4800042202A9019310232046CDE90223019A25
:100F5800012305924FF4805204930AF0B5FC40F641
:100F6800060120460AF0D0FC284607B0F0BD00BFB5
:100F7800180600241C4B00221C494FF0400C30B5C9
:100F8800054689B00220596007219A601A62012437
:100F9800DA620A224FF4006EDC6006922022CDE964
:100FA800000104200821CDE9020103201021CDE928
:100FB800040108206946C3E904024FF4C072181DF1
:100FC800C3E906C24FF48052C3E909E20AF052FCB1
:100FD80038B92846FFF782FF003818BF012009B04A
:100FE80030BD204609B030BD1406002440410052EF
:100FF800614A0021D0B513688EB00A91002B40F0E9
:10100800B9805E4B01214FF683700C2411600221D8
:10101800D3F8D4200026032742F48052C3F8D42002
:10102800D3F8D42002F480520092009AD3F8E0203A
:1010380042F01002C3F8E020D3F8E02002F01002DA
:101048000192019AD3F8E02042F04002C3F8E02070
:10105800D3F8E02002F040020292029AD3F8E0208E
:1010680042F00802C3F8E020D3F8E02002F00802BA
:101078000392039AD3F8E02042F48072C3F8E02088
:10108800D3F8E02002F480720492049AD3F8E020A6
:1010980042F08002C3F8E020D3F8E02002F080029A
:1010A8000592059AD3F8E02042F02002C3F8E02028
:1010B800D3F8E02002F020020692069AD3F8E02046
:1010C80042F00402C3F8E020D3F8E0300C9403F0B7
:1010D800040307930323079A0B93CDE9080108A992
:1010E800274805F0A5FE48F23712022308A925482B
:1010F8000C94CDE90823CDE90A6705F099FE4CF276
:101108000372022308A920480C94CDE90823CDE9ED
:101118000A6705F08DFE40F2FF62022308A91B480A
:101128000C94CDE90823CDE90A6705F081FE4FF656
:101138000C72022308A916480C94CDE90823CDE9BE
:101148000A6705F075FE4FF63F02022308A9114809
:101158000C94CDE90823CDE90A6705F069FE202241
:10116800022308A90A480C94CDE90A67CDE90823A7
:1011780005F05EFE0EB0D0BD1006002400440258F3
:101188000010025800180258000C0258002002589B
:10119800001C0258001402582DE9F04FDFF81084A3
:1011A80006460D46144608F118002DED028B89B04D
:1011B80000AF02F065FFD8F8183073B3D8F81C30C8
:1011C800D8F80490002B43690BBF4FF0080A4FF082
:1011D800100A4FF0020B4FF0040BB9F1000F2AD0A0
:1011E800A200EA46012B02F1070222F00702ADEB4A
:1011F800020D6846ADEB020D694600F03F81022BF7
:1012080000F0D680002B6FD02246C847D546243739
:10121800BD46BDEC028BBDE8F08FD8F81C30002B22
:10122800F5D0D8F804904FF0080A4FF0020B436944
:10123800B9F1000FD4D1FB61D8F80030BB61002BA5
:10124800E5D0D54802F08EFF6B46BBF1020F7861FE
:1012580008EE103AFB6900F083816A465146A2EB1A
:10126800C40295466200EA46B2FBFBF2AAEBC40050
:1012780085460AEB8200EE46F861ADEB010DF86990
:101288000EEB820CC7F810C0EC46ADEB010D00EB7D
:101298008201CCF80400CCF8081001EB820138690F
:1012A800E946CCF80C1000EB8201CCF800A001EB69
:1012B8008202C9E900E0C9E90212012B00F0648347
:1012C800022B00F06C82002B00F0808162084946F6
:1012D8006046BB69984718EE103A24379D46BD46CC
:1012E800BDEC028BBDE8F08F002C8DD01A46D8EDEE
:1012F8000C6A9FEDB27A8446331D36F922E00CF170
:10130800080C07EE90EA33F922E00232F8EEE77AA9
:10131800944267EE877A67EEA67A4CED027A07EE7A
:1013280090EAF8EEE77A67EE877A67EEA67A4CEDF0
:10133800017AE2D8F9612246C847984ED8ED0D6A7D
:101348000020F9692B1D9FED9E7A9FED9E6ADFEDC7
:101358009E5A22E0F4EEC67AF1EE10FAC0F2C88482
:1013680047F6FE72D1ED017A45F8202066EEA77A9D
:10137800F4EEC77AF1EE10FA40F2F080F4EEC67A95
:10138800F1EE10FAC0F2D58447F6FE7243F8202039
:101398000230083184427FF639AFD1ED007A66EE2B
:1013A800A77AF4EEC77AF1EE10FAD3D83246D9E725
:1013B800002C3FF429AFD8ED0C6A84469FED787A6B
:1013C8000022331D8E4656F822100CF1080C07EE49
:1013D800901A53F822100232F8EEE77A944267EE38
:1013E800877A67EEA67A4CED027A07EE901AF8EE45
:1013F800E77A67EE877A67EEA67A4CED017AE2D84B
:1014080071462246C7F81CE0C847664ED8ED0D6AFB
:101418000020F9692B1D9FED6A7A9FED6A6ADFF853
:1014280094C120E0F4EEC67AF1EE10FAC0F27984A5
:101438003246D1ED017A45F8202066EEA77AF4EE1F
:10144800C77AF1EE10FA40F28780F4EEC67AF1EE30
:1014580010FAC0F25E84324643F820200230083188
:1014680084427FF6D3AED1ED007A66EEA77AF4EE29
:10147800C77AF1EE10FAD5D86246DAE7002C3FF4C5
:10148800C3AED8ED0C6A86469FED477A4FF0000C44
:10149800331D56F82C200EF1080E82F40002A2F536
:1014A800000207EE902A53F82C200CF1020CF8EEFB
:1014B800E77A82F400026445A2F5000267EE877AB3
:1014C80067EEA67A4EED027A07EE902AF8EEE77AF2
:1014D80067EE877A67EEA67A4EED017AD9D8F96178
:1014E8002246C847314ED8ED0D6A0020F9692B1DF8
:1014F8009FED337A9FED336ADFF8BCC01FE0F4EE4E
:10150800C67AF1EE10FAC0F2FC833246D1ED017AC8
:1015180045F8202066EEA77AF4EEC77AF1EE10FAC5
:1015280018D9F4EEC67AF1EE10FAC0F2DA83324630
:1015380043F820200230083184427FF667AED1EDAF
:10154800007A66EEA77AF4EEC77AF1EE10FAD6D8EA
:101558006246DBE76246EBE762467DE7324615E71F
:10156800A100D6466208073121F00701ADEB010D55
:10157800EA46ADEB010D6946ADEB0E0D0AEB8200B4
:10158800EC46ADEB0E0D01EB8202F861E946CCE9C1
:1015980000A0C9E9001290E6680600240280FFFF57
:1015A800000000300082FF7F0000003482FF7F00CF
:1015B8004C060024007E00807E0080FF000000387A
:1015C80004FF7FBF04FF7F3F00FEFF46002C00F0B2
:1015D800C982BBF1020FD8F8242000F0FA82796999
:1015E800C7F8049002EB810E5FED0C5A8A00DCF814
:1015F80008100EF104007A611A46DCF80C303B61E1
:10160800331DD7F810903D61FD69C7E902CB8C46C0
:10161800834636F92210D8ED0C7A06EE101A33F903
:10162800221006EE901A3EF92210B8EEC66A07EEAE
:10163800101AF8EEE66A3BF92210B8EEC77A26EEE1
:10164800256A66EEA56A27EE257A26EE276A66EEF3
:10165800A76A27EE277A07EE901A51080232F8EEA9
:10166800E77A0AEB8100944280ED006A05EB81007D
:1016780067EEA57AC0ED006A0CEB810009EB8101E9
:1016880080ED007A98ED0C7A67EE877AC1ED007AE2
:10169800BFD8D7F804903D69D7E902CB6046620805
:1016A800BB6949469847D8F82C307A69D8ED0D6A55
:1016B8001A441FED3D7A1FED3D6A2B1D904602F13D
:1016C800040A5FED3F5A0022A84ED9E900EC51E028
:1016D800F4EEC67AF1EE10FAC0F2C78247F6FE7051
:1016E80045F822000CEB0100D0ED007A66EEA77AEF
:1016F800F4EEC77AF1EE10FA4BD9F4EEC67AF1EEB1
:1017080010FAC0F2BA8247F6FE70BBF1020F43F836
:1017180022002BD0D9F808000844D0ED007A66EEF4
:10172800A77AF4EEC77AF1EE10FA36D9F4EEC67A53
:10173800F1EE10FAC0F2CD8247F6FE7048F82200AA
:10174800D9F80C000144D1ED007A66EEA77AF4EEE0
:10175800C77AF1EE10FA1ED9F4EEC67AF1EE10FA55
:10176800C0F2AF8247F6FE714AF822100232944264
:101778007FF6B1AD51080EEB81008900D0ED007AFB
:1017880066EEA77AF4EEC77AF1EE10FAA0D83046E2
:10179800A6E73046B9E73146E6E73046CEE7002C03
:1017A80000F0E081BBF1020FD8F8243000F0E181AD
:1017B8007A69DCF8081003EB820EC7F804909300EE
:1017C800DFED6B5A0EF1040000227B61DCF80C306F
:1017D8003B61331DD7F810903D61FD69C7E902CB25
:1017E8008C46834656F82210D8ED0C7A07EE101A6C
:1017F80053F82210B8EEC76A07EE101A5EF82210E6
:10180800F8EEC76A07EE101A26EE256A5BF8221072
:10181800B8EEC77A66EEA56A26EE276A27EE257A1D
:1018280066EEA76A27EE277A07EE901A5108023269
:10183800F8EEE77A0AEB8100944280ED006A05EB46
:10184800810067EEA57AC0ED006A0CEB810009EB18
:10185800810180ED007A98ED0C7A67EE877AC1ED08
:10186800007ABFD8D7F804903D69D7E902CB604623
:101878006208BB6949469847D8F82C307A69D8ED90
:101888000D6A1A449FED3E7A9FED3E6A131D9246FB
:10189800DFF8E4C00022FB612B1D364ED9E9008E2B
:1018A8004EE0F4EEC67AF1EE10FAC0F2FC81304652
:1018B80045F822000EEB0100D0ED007A66EEA77A1B
:1018C800F4EEC77AF1EE10FA49D9F4EEC67AF1EEE1
:1018D80010FAC0F2EF813046BBF1020F43F8220044
:1018E8002AD0D9F808000844D0ED007A66EEA77A25
:1018F800F4EEC77AF1EE10FA35D9F4EEC67AF1EEC5
:1019080010FAC0F2C98130464AF82200D9F80C0012
:101918000144D1ED007A66EEA77AF4EEC77AF1EECB
:1019280010FA1ED9F4EEC67AF1EE10FAC0F2AD81C3
:101938003146F86940F82210023294427FF6CBAC67
:10194800510808EB81008900D0ED007A66EEA77A8D
:10195800F4EEC77AF1EE10FAA3D86046A8E760461D
:10196800BAE76146E5E76046CEE700BF0280FFFFC1
:10197800000000300082FF7F007E008000000034FD
:1019880004FF7FBF04FF7F3F002C00F0EB807A69E3
:101998000021D8F82430C7F8109003EB820ED7F84E
:1019A8001C909300FD610EF104021FED0C6A7B612F
:1019B800331D154656F821204808D8ED0C6ABBF1AE
:1019C800020F82F40002A2F5000207EE902A53F8F3
:1019D800212082F40002B8EEE77AA2F5000227EE91
:1019E800067A07EE902A0AEB8002F8EEE77A27EEED
:1019F800267A67EE867A82ED007A09EB80024FEA52
:101A0800800067EEA67AC2ED007A27D05EF8212022
:101A180082F40002A2F5000207EE902A55F8212070
:101A280082F40002B8EEE77AA2F5000227EE067A01
:101A380007EE902ADCF80820F8EEE77A024427EE51
:101A4800267A67EE867A82ED007A98ED0C7ADCF8D1
:101A58000C2067EE877A0244C2ED007A02318C428C
:101A6800A8D8D7F8109060466208BB694946FD6956
:101A78009847D8F82C307A69D8ED0D6A1A441FEDCA
:101A8800407A1FED406A131D9246DFF8C4C2002257
:101A9800FB612B1DAB4ED9E9008E4EE0F4EEC67A01
:101AA800F1EE10FAC0F2C580304645F822000EEB80
:101AB8000100D0ED007A66EEA77AF4EEC77AF1EE6F
:101AC80010FA49D9F4EEC67AF1EE10FAC0F2BF80E6
:101AD8003046BBF1020F43F822002AD0D9F808009B
:101AE8000844D0ED007A66EEA77AF4EEC77AF1EEF4
:101AF80010FA35D9F4EEC67AF1EE10FAC0F2AE80DB
:101B080030464AF82200D9F80C000144D1ED007A99
:101B180066EEA77AF4EEC77AF1EE10FA1ED9F4EE63
:101B2800C67AF1EE10FAC0F28B803146F86940F8B7
:101B38002210023294427FF6CEAB510808EB8100A6
:101B48008900D0ED007A66EEA77AF4EEC77AF1EE56
:101B580010FAA3D86046A8E76046BAE76146E5E709
:101B68006046CEE7224649466046BB699847FFF77C
:101B7800B2BBC7F810B0002298ED0C6A331DDFED38
:101B8800726AD7F81CB0786956F8221007EE901AD6
:101B980053F82210B8EEE77A07EE901A510802328D
:101BA800F8EEE77A27EE267A0AEB810E94420BEBE1
:101BB800810167EEA67A27EE067A67EE867A8EEDC1
:101BC800007AC1ED007ADFD88300D7F810B07B61C6
:101BD8004DE61A46C7F810B098ED0C6A331DDFEDD4
:101BE8005B6AD7F81CB0786936F9221007EE101A2C
:101BF80033F9221007EE901AB8EEC77A510802326C
:101C0800F8EEE77A27EE267A0AEB810E94420BEB80
:101C1800810167EEA67A27EE067A67EE867A8EED60
:101C2800007AC1ED007ADFD88300D7F810B07B6165
:101C380034E5F0EE675AFEEEE45A15EE900A34E702
:101C4800F0EE675AFEEEE45A15EE901A6EE7F0EEE3
:101C5800675AFEEEE45A15EE900A3AE7F0EE675A34
:101C6800FEEEE45A15EE900A4BE767EEA57AFDEE14
:101C7800E77A17EE900A00B232E567EEA57AFDEE34
:101C8800E77A17EE900A00B23FE5F0EE675AFEEEEB
:101C9800E05A15EE901A4CE6F0EE675AFEEEE05A5E
:101CA80015EE900A30E6F0EE675AFEEEE05A15EEB1
:101CB800900AFDE5F0EE675AFEEEE05A15EE900A3E
:101CC8000AE667EEA57AFDEEE77A17EE901A09B2F2
:101CD8004AE567EEA57AFDEEE77A17EE900A00B2BC
:101CE8002CE5F0EE675AFEEEE45A15EE902A1FE452
:101CF80067EEA57AFDEEE77A17EE902A12B2FFF7A3
:101D080031BBF0EE675AFEEEE45A15EE902AFFF763
:101D1800FDBBF0EE675AFEEEE05A15EE902AFFF78B
:101D28009BBBF0EE675AFEEEE05A15EE902AFFF7DD
:101D380080BB67EEA57AFDEEE77A17EE902A12B21D
:101D4800FFF724BB82FF7F0000000030000000384E
:101D58007E0080FF30B5184C154685B0046004F14C
:101D6800080EEC460FC98EE80F00D4ED047AF5EEA4
:101D7800C07A8CE80F00F1EE10FA1ADDB7EE006AAF
:101D880094ED057A27EE277AC6EE276A84ED0D7A58
:101D9800C4ED0C6A6DB1204640F8185F02F070F986
:101DA800064903690020064A2162A262E36005B081
:101DB80030BD012005B030BD4C060024C0200030E5
:101DC800C000003000680830704700BFB1F5807F60
:101DD80003680A4628BF4FF48072B1F5807F9A6085
:101DE80094BF0020012070470068183002F0A8B99D
:101DF80070B504688AB0A369E160CBB104F1180535
:101E0800284602F03DF98446EE46E668BCE80F0035
:101E1800AEE80F00BCE80F00AEE80F009CE8030036
:101E28008EE8030069462846049602F031F8F8B9AE
:101E3800E069D8B104F11C05284602F021F984466E
:101E4800EE46E468BCE80F00AEE80F00BCE80F00FF
:101E5800AEE80F009CE803008EE8030069462846B8
:101E6800049402F015F8003818BF01200AB070BDBC
:101E780001200AB070BD00BF30B5046883B00D46BC
:101E8800E3694BB1A3680020E26A616A9B00009095
:101E980004F11C0002F0F6F8A3680748A26A9B0048
:101EA800216A009004F1180002F0ECF80020C4E95F
:101EB800005003B030BD00BFA111000810B4074B9B
:101EC8004FF07E5130240022032019619C60D860B5
:101ED8005DF8044B5961C3E9062270474C0600249B
:101EE800F6EE007A9FED166A20EE207A0160F7EE92
:101EF800006A80ED036A80ED020A27EE277AC6EEB3
:101F0800877AF4EEE67AF1EE10FA11DDF0EE667AF1
:101F18004FF07E514FF0000C02760022C0ED017A9E
:101F2800C0F814C0016143768276C0ED070A704795
:101F3800F4EEC67AF1EE10FAEAD5F0EE467AE7E763
:101F480000000000DFED187AB6EE007AF7EE006ABE
:101F58009FED166A60EE277A016080ED036A80EDD6
:101F6800020A67EE877A86EEA77AB4EEE67AF1EE91
:101F780010FA10DDB0EE667A4FF0804C4FF07C51CD
:101F88004FF48072012380ED017AC0F810C04161DE
:101F9800028383767047B4EEC67AF1EE10FAEBD579
:101FA800B0EE467AE8E700BF6F12033B000000007E
:101FB8000268037E128807EE902AFBEEC87A1BB1EE
:101FC800B7EE007A77EE677AD0ED056A90ED047A7D
:101FD80077EEE67A437E67EE877A0BB1F1EE677AA1
:101FE80090ED030A90ED017A77EEC07AA7EE270A02
:101FF80080ED030A704700BF837E80ED020AABB90B
:10200800D0ED077A27EE800AF6EE007AB7EE007A6E
:1020180020EE270AC7EE007AF4EEC77AF1EE10FA3E
:1020280007DDF0EE477AC0ED017A7047DFED067AFA
:10203800E8E7F5EEC07AF1EE10FAF4D5DFED037AB1
:10204800C0ED017A704700BF6F12033B000000002B
:1020580070B584B0002504461646ADF80C102B4622
:102068002A460399009500F0C1FDA582A67504B023
:1020780070BD00BF427D837D10B50446027553B123
:1020880000F09AFE80F00103D8B2607510B1207D8F
:1020980080F0010010BD00F08FFEF6E770B5044631
:1020A80082B0C1F30726CDB2ADF8041002F00EF9E4
:1020B8004FF480724FF001232060A01DA571A2800B
:1020C800E671A36002B0BDE8704000F08BBE00BFAF
:1020D80038B5044602F0FAF80022236822718342D8
:1020E80010D00122A57AE37A954020602271A01DC4
:1020F8006DB243B900F052FF40B22843C0B27F2806
:10210800A0720AD038BD00F049FFB0FA80F040094B
:102118002843C0B27F28A072F4D102F0D7F807EEA6
:10212800900AF8EE677AC4ED037A38BD00B583B03B
:102138004FF0000E4FF0030C4274ADF80410BDF8D8
:10214800043080F810E0A0F802C0038003B05DF806
:1021580004FB00BF2DE9F04FDFF81C8300258DB08C
:10216800C04C037008F140034260074601920E46D6
:10217800202229464046C4F86831C4F86481CDE974
:102188000255CDE90455CDE90655CDE90855CDE907
:102198000A550FF061FC2022294604F5A170C4F805
:1021A8003151C4F83551C4F83951C4F83D510FF0D4
:1021B80053FC019B84F8485284F830317A68002A2D
:1021C8006AD02B4604F59871454606F1100A9E46DA
:1021D800F01856F803B0E2180EF1010ED0F80CC052
:1021E800D0F80490D0F8088044F803B0C2F80CC0C6
:1021F8004FF0000CC2F80490C2F80880008A25F855
:1022080002CB10821AF8032001F8012F002A70D09F
:102218007A684FF001001233724584F84802D7D823
:102228004FF4802290489DF8043008214FF00008B0
:102238004FF00009C4F884310023C4E95B0201228D
:10224800C4F8743184F88031C4E95E2194F84812E6
:10225800C4E96489A9B3C4F89821002284F88131BB
:1022680084F888313B78C4E96722002B38D00122F2
:1022780000200121013B84F8A421C4E96C01082B4A
:1022880030D8DFE813F0BD00C200C700CC00D10091
:10229800D600DB00E100E8009DF804300121C4F815
:1022A8007421C4F884314FF4802384F880216E4A65
:1022B800C4E95B2308230022C4E95E130023C4E9B0
:1022C80064230123002284F88131002384F88831B3
:1022D8000323C4F898313B78C4E96722002BC6D1A0
:1022E80084F8A431614803F06FF8034638B1FFBEA3
:1022F800FEE77A68123372453FF66AAF90E702A9A3
:102308005A48029303F0BEF98246002876D1042287
:1023180040F2FF710A90CDE9081294F83021002AA2
:1023280000F0F3804FF006080AEBCA034FEACA0927
:1023380004EB43035B7C072B07D8DFE803F0595C09
:102348005653504D4A04072307930FFA8AF6D1448F
:1023580006EBC60604EB490904EB46077500384648
:1023680000F040FD99F81030042B00F3AA80022BEE
:1023780000F3BD8000F0B98004EB0A03002283F863
:10238800202114F81630002B78D0022B00F08A8018
:10239800012B40F0B2807B78012B00F0B080002B3D
:1023A800334B18BF002305A93048CDE9053802F0A2
:1023B80037FC002840F0AC800AF1010A94F830316B
:1023C8005FFA8AFA534540F2A0802A4B53F82A80D4
:1023D800AAE706230793B8E705230793B5E704237D
:1023E8000793B2E703230793AFE702230793ACE70A
:1023F80000230793A9E701230793A6E7FFBEFEE79B
:1024080003224023C4E96A236CE707226023C4E956
:102418006A2367E70F228023C4E96A2362E71F2241
:10242800A023C4E96A235DE73F22C023C4E96A23E5
:1024380058E77F22E023C4E96A2353E7FF224FF4D9
:102448008073C4E96A234DE740F2FF124FF490739A
:10245800C4E96A2346E740F2FF324FF4A073C4E9A7
:102468006A233FE78806002400200240F40700247E
:102478000002B025C81A0108C04000307B78062B3E
:1024880037D0072B3DD0022B4AD0032B4AD0002B44
:102498004CD0012B48D0042B4AD0052B254B18BF14
:1024A800002380E77B78042B25D0052B2BD08BB31A
:1024B800012B31D0022B31D0032B1F4B18BF002327
:1024C80071E70323043504EB0A0B4FF00009254498
:1024D8008BF82031284609F1010900F083FC9BF8AC
:1024E800203104354B45F5DC4BE70123EAE70223AD
:1024F800E8E7124B57E7124B55E7002353E7114B18
:1025080051E7114B4FE7114B4DE70DB0BDE8F08F88
:10251800FFBEFEE70E4B46E70E4B44E70E4B42E785
:102528000E4B40E70E4B3EE70E4B3CE70E4B3AE7AF
:102538000E4B38E70000B84F002090360800900C8A
:102548001000C0102000F0148000501D00018021F0
:102558000004002A0008302E001060320040C03A03
:102568000080F03E00005247000021430000844BE9
:1025780038B5094C40F2FF724FF0011104F5B675F9
:10258800284603F02DF894F83021D4F86411284631
:10259800BDE8384002F098BD88060024034B0F2997
:1025A800D3F8640198BF00EB410070478806002407
:1025B800214B02689A4200D07047204A00232048E5
:1025C800D2F8D81030B51F4C41F0200183B0C4F8C0
:1025D800D001092004F5E875C4E975034FF480605B
:1025E800C2F8D810D2F8D8204FF40061C4E9773087
:1025F80094F8480202F02002C4F8E4114FF40051A4
:10260800984201922846C4F8E811C4E97C33019B3A
:1026180014BF00234FF48073C4F8EC3103F030FC8E
:1026280008B1FFBEFEE704F5B673C4F8B851C4F8A4
:10263800083203B030BD00BF0020024000440258F9
:102648004000024088060024014804F09FB800BFFB
:102658005808002402682DE9F84F4B4B9A4201D0E4
:10266800BDE8F88F494D95F84832002BF8D095F819
:102678003031002B77D0002405F10C0905F5A1763F
:1026880005F59877A04613E003F0010117F811BC8F
:10269800A9F1080000F090FCBBF1010F25D895F8CE
:1026A8003031013409F112090236A2B293422BD912
:1026B80017F8012F002AF4D0D5F8643100213278B8
:1026C80033F81400D5F8683103EB041323F812002B
:1026D800338801339BB233805FFA83FA3A789A429F
:1026E800D2D88A46A6F80080D0E7CAF34001A9F1FB
:1026F800040000F061FCBBF1020FCAF38001CED0E8
:10270800484600F059FCCAE7002395F848022049DA
:1027180009229842C5F8D8314FF48060C5F8D01125
:10272800C5F8D4214FF400614FF40052C5F8DC31EC
:1027380008BF4FF48073C5F8E821C5E97801002285
:102748001448C5E97B32C5F8F42103F099FB08B1B8
:10275800FFBEFEE795F83021D5F864110E48BDE8B4
:10276800F84F02F0B1BC0A4909224FF48060C5F85D
:10277800D831C5E974124FF400614FF40052C5E92D
:102788007730C5E97912DAE700200240880600248C
:102798004000024058080024F4070024704700BF96
:1027A8004F4B02689A4200D070474E4BD3F8E8105E
:1027B80030B541F000514C4C85B0D4F84821C3F8ED
:1027C800E810D3F8E81001F0005101910199D3F80D
:1027D800E01041F00101C3F8E010D3F8E03003F055
:1027E80001030293029B32F002033DD0013A012A11
:1027F8006BD9D4F84C31012B0AD00022362011466F
:1028080002F0B4FF362005B0BDE8304002F0ECBF5E
:10281800D4F8483133F0020234D0013B012BECD814
:10282800442240233149324DC4F88C1000212846F7
:10283800C4F8B010C4E9242300224FF48063C4E92B
:1028480026234FF400624FF40053C4E928234FF4C1
:1028580080724FF48033C4E92A2303F011FB80B956
:10286800E560C4F8C440C8E74FF48062032303A8B6
:10287800ADF80C208DF80E3000F0B4FAD4F84821E9
:10288800B4E7FEE71B4BA2634322636140231A4D62
:10289800C4E9062300224FF480632846C4E90823CC
:1028A8004FF400624FF40053C4E90A234FF48072D6
:1028B8004FF48033C4E90C2303F0E2FA20B9D4F8CA
:1028C8004831A560E464A8E7FEE74FF4A06203235B
:1028D80003A8ADF80C208DF80E3000F083FA88E7D5
:1028E8000074004000440258D8080024280402401C
:1028F8006409002410040240EC080024014803F095
:1029080045BF00BFEC080024014803F03FBF00BFEB
:102918006409002410B5054C204603F0E1F804F5DD
:102928008270BDE8104009F09DB900BFD8080024A6
:10293800164BD3F84821D3F85811022A4FEA51010F
:1029480030B583B00CD088B2D3F85C21D3F8644199
:1029580002EB400300930CB16846A04703B030BDBA
:10296800D3F86021002AF9D088B2D3F85C41D3F8B3
:10297800645104EB400402EB4002CDE90042002D13
:10298800ECD06846A84703B030BD00BFD808002483
:10299800134BD3F84821022A10B582B00CD0D3F8D3
:1029A8005C11D3F86421009122B1D3F8581168461C
:1029B8004908904702B010BDD3F86021002AF9D029
:1029C800D3F85C11D3F86441CDE90012002CF1D0A2
:1029D800D3F8581168464908A04702B010BD00BF97
:1029E800D8080024094BD3F84821022A0DD000B595
:1029F800D3E9581283B0019122B1D3F8581101A834
:102A08004908904703B05DF804FB7047D8080024D4
:102A18000B4BD3F84821022A10D0D3F8581110B51F
:102A2800D3E95824C1F34F0382B0490802EB4303AA
:102A380001930CB101A8A04702B010BD704700BFB8
:102A4800D808002430B58C463A4C3B4D8DB0046014
:102A580004F5A27EBCE80F00AEE80F00DCF80030F9
:102A680020462560CEF8003002F04CFF0023D4F851
:102A78004C510393C5B11622012D049217D00022A0
:102A8800D4F85411D4F848319142CDE9062218BF40
:102A98000222059233F0020235D0013B012B3CD9CA
:102AA800002528460DB030BD02230493E7E7234AEA
:102AB8000093C4F80C31C4F81431C4F80421C4F8E4
:102AC8001C31CDE9013301F09FFDD4F844314BF6B8
:102AD8008032C4F80851002B08BF1346B0FBF3F34B
:102AE80004F58270C4F8103108F026FF0028D8D108
:102AF80020230290694604F58270009309F06AF970
:102B08000028BCD0CDE703A90A4803F01DF878B91E
:102B1800D4F84831013B012BC2D8102203A905483B
:102B280003F012F8051E18BF012528460DB030BD68
:102B38000125B6E7D80800240074004000100040C2
:102B480070B504681D4682B01046D4F84C31012B8C
:102B580003D0D4F84831022B24D1D4F85031069A46
:102B6800002BC4F85C11C4F864212B460CBF08265E
:102B78000026C4F860010A46C4F8585100212046CE
:102B8800009602F0D5FED4F860212B46102120468D
:102B9800009602F0CDFE04F5827008F06DFF00206B
:102BA80002B070BD012002B070BD00BF10B504684E
:102BB800D4F84C31012B09D1D4F8483133F0020153
:102BC80006D0013B012B0BD9002010BD012010BD00
:102BD800204602F039FFD4F84831013B012BF3D8E5
:102BE8001021204602F030FF002010BD10B592B031
:102BF800ADF804100180C9B2149C0B29C460C0E967
:102C080001233FD090F801C0BCF10F0F3AD8022A37
:102C18003FD0032A02D0012A00D000220E92012BB5
:102C280002D0022B18BF0023022C0F932CD0032CA8
:102C38002AD0012C28D000230A29109327D85C4ACF
:102C480002EB812202610A2914D8DFE801F0A3957A
:102C580087796B5D4F4133250600564BD3F8E0105A
:102C680041F48061C3F8E010D3F8E03003F48063E6
:102C78000C930C9B01230DA9104603FA0CF30D933A
:102C880004F0D6F812B010BD0A291094D7D9002242
:102C9800D8E711220E92C2E7464BD3F8E01041F470
:102CA8000071C3F8E010D3F8E03003F400730B931D
:102CB8000B9BDFE73F4BD3F8E01041F48071C3F87A
:102CC800E010D3F8E03003F480730A930A9BD1E74D
:102CD800384BD3F8E01041F08001C3F8E010D3F886
:102CE800E03003F080030993099BC3E7314BD3F825
:102CF800E01041F04001C3F8E010D3F8E03003F0F1
:102D080040030893089BB5E72A4BD3F8E01041F03D
:102D18002001C3F8E010D3F8E03003F02003079354
:102D2800079BA7E7234BD3F8E01041F01001C3F845
:102D3800E010D3F8E03003F010030693069B99E700
:102D48001C4BD3F8E01041F00801C3F8E010D3F8A9
:102D5800E03003F008030593059B8BE7154BD3F888
:102D6800E01041F00401C3F8E010D3F8E03003F0BC
:102D780004030493049B7DE70E4BD3F8E01041F065
:102D88000201C3F8E010D3F8E03003F00203039324
:102D9800039B6FE7074BD3F8E01041F00101C3F83C
:102DA800E010D3F8E03003F001030293029B61E7DF
:102DB800000002580044025808B501214378006910
:102DC800994089B204F03CFA003818BF012008BDC8
:102DD80001230A464178006903FA01F189B204F037
:102DE80035BA00BF8378022B30B504468FB037D090
:102DF800032B33D0012B31D000230A93E378012B26
:102E08002AD0022B28D000230B93002320460C93B2
:102E180001F080FD0546204601F084FD23780990E5
:102E2800082B13D8DFE803F01F3245586B7E91A4B6
:102E38000500594BD3F8E02042F48072C3F8E02033
:102E4800D3F8E03003F480730893089B09A9284657
:102E580003F0EEFF0FB030BD0B93D6E70A93CDE732
:102E680011230A93CAE74C4B09A92846D3F8E02056
:102E780042F00102C3F8E020D3F8E03003F0010388
:102E88000093009B03F0D4FF0FB030BD424B09A95B
:102E98002846D3F8E02042F00202C3F8E020D3F835
:102EA800E03003F002030193019B03F0C1FF0FB070
:102EB80030BD394B09A92846D3F8E02042F0040276
:102EC800C3F8E020D3F8E03003F004030293029B38
:102ED80003F0AEFF0FB030BD2F4B09A92846D3F839
:102EE800E02042F00802C3F8E020D3F8E03003F015
:102EF80008030393039B03F09BFF0FB030BD264BE1
:102F080009A92846D3F8E02042F01002C3F8E020CF
:102F1800D3F8E03003F010030493049B03F088FF18
:102F28000FB030BD1C4B09A92846D3F8E02042F069
:102F38002002C3F8E020D3F8E03003F02003059323
:102F4800059B03F075FF0FB030BD134B09A9284648
:102F5800D3F8E02042F04002C3F8E020D3F8E03094
:102F680003F040030693069B03F062FF0FB030BDE9
:102F7800094B09A92846D3F8E02042F08002C3F89B
:102F8800E020D3F8E03003F080030793079B03F0B9
:102F98004FFF0FB030BD00BF0044025838B505469A
:102FA80001F0B8FC0446284601F0BCFC0146204666
:102FB800BDE8384004F044B970B506460D4601F046
:102FC800A9FC0446304601F0ADFC2A1E0146204605
:102FD80018BF0122BDE8704004F038B9002312225E
:102FE80070B586B0CDE9022304930368032B01D89A
:102FF80004230593061D841D304601F08BFC05460D
:10300800304601F08FFC034601A92846019303F0DE
:103018000FFF204601F07EFC034620461C4601F0C7
:1030280081FC01A903462046019303F001FF06B085
:1030380070BD00BF634A0368934210B58CB028D0B6
:10304800614A934258D0614A934200F09480604AA2
:10305800934201D00CB010BD5E4C5F48D4F8E0300C
:1030680043F00203C4F8E030D4F8E03003F0020380
:103078000A930A9BFFF7B2FFD4F8F43043F08003B9
:10308800C4F8F430D4F8F43003F080030B930B9BAE
:10309800E0E7504C5148D4F8E03043F00203C4F85C
:1030A800E030D4F8E03003F002030193019BFFF70E
:1030B80095FFD4F8E83000221F2043F4001311468E
:1030C800C4F8E830D4F8E83003F400130293029B04
:1030D800D4F8D83043F00103C4F8D830D4F8D83045
:1030E80003F001030393039B02F040FB1F200CB085
:1030F800BDE8104002F078BB364C3948D4F8E030CF
:1031080043F08003C4F8E030D4F8E03003F08003E3
:103118000493049BD4F8E03043F00203C4F8E03091
:10312800D4F8E03003F002030593059BFFF756FF40
:10313800D4F8E8300022212043F480031146C4F873
:10314800E830D4F8E83003F480030693069BD4F8FB
:10315800D83043F00103C4F8D830D4F8D83003F09D
:1031680001030793079B02F001FB21200CB0BDE887
:10317800104002F039BB1B48FFF730FF154B002207
:103188004820D3F8E840114644F40004C3F8E84066
:10319800D3F8E84004F400040894089CD3F8D84015
:1031A80044F00104C3F8D840D3F8D83003F0010341
:1031B8000993099B02F0DAFA48200CB0BDE81040E8
:1031C80002F012BB0054004000580040005C004070
:1031D800001C005800440258CC0C0024440A002467
:1031E8001C0B0024F40B00242DE9F0431A4B87B084
:1031F80000254FF010099E46EC46184BFF22E0468A
:1032080067461A700EF118060EF13004CDE9005524
:10321800CDE90255ADF80090BCE80F00CDE90455A2
:10322800AEE80F009CE803000095ADF800908EE82A
:103238000300B8E80F000FC69CE803000095ADF83E
:10324800009086E803000FCF0FC49CE8030084E8D1
:10325800030007B0BDE8F08318000024400A0024EA
:1032680010B5EFF3108472B6084B1A78120602D51F
:1032780004B962B610BD1B78D82205485BB202FBC0
:103288000300143003F082FAF2E700BF400A00247A
:10329800440A0024014804F031BF00BFD00A0024CA
:1032A800014804F02BBF00BFA80B0024014804F01C
:1032B80025BF00BF800C00242DE9F0430F68D824F7
:1032C8003F4D85B007FB04F4032F05EB04030360AF
:1032D80040DCCB680E46012B3CD84DD04FF0D808C7
:1032E800B646DFF8FC9008FB0758BEE80F00C44656
:1032F800ACE80F00DEF800300DF1100ECCF800300D
:10330800D8F808C099E80F000EE90F000EEB870304
:10331800BCF1010F53F8103CC8F88C3031D0BCF127
:10332800020F42D0BCF1000F35D0317C8C34D82349
:10333800002201202C4403FB07534900C3E926025D
:10334800C3F894102046C3E92822C3E92A2204F0CE
:1033580007FC18B1012005B0BDE8F08301462046FE
:1033680004F0D8FE0028F5D10146204604F0FCFE02
:10337800003818BF0120EEE70B7C103B672BADD956
:10338800E8E701F03FF90F4B98420CBF0E4B0F4B8B
:10339800C8F89030C9E701F035F90A4B98420CBFDC
:1033A8000B4B0C4BC8F89030BFE701F02BF9054BDD
:1033B80098420CBF084B094BC8F89030B5E700BFDE
:1033C800440A0024000E27072D0FB0303211D020F8
:1033D8005F4390608A62E030200BA0101A098010C9
:1033E800881A01082DE9F041046884B01E46E36894
:1033F800BDF82C80C3B90D4617468C34204604F01E
:1034080085FE2028FAD120460C9C33463A462946A8
:10341800CDE901840A9C009404F022FD003818BF0D
:10342800012004B0BDE8F081012004B0BDE8F081BE
:103438002DE9F041046884B01E46E368BDF82C808D
:10344800C3B90D4617468C34204604F05FFE202889
:10345800FAD120460C9C33463A462946CDE90184E8
:103468000A9C009404F0D2FB003818BF012004B075
:10347800BDE8F081012004B0BDE8F081044B1022C2
:103488001A7483F8E82083F8C02183F898227047DB
:10349800440A002430B5002395B04FF48071062209
:1034A80004460B9306921393CDE90C13CDE90E3322
:1034B800CDE9113301F0AAF807282BD004F1100543
:1034C80041F2883206A9284605F060FC28B101239C
:1034D800184684F85C3015B030BD0222022306A9D4
:1034E8002846CDE9002310220123CDE9022300223A
:1034F8004FF48003CDE9042305224FF08073069230
:103508006A460F9341F2883305F0ACFD0028DED1FE
:1035180015B030BD0323012084F85C3015B030BDF0
:1035280070B50023A4B04FF080724FF48075044644
:10353800ADF806300D93CDE910320122CDE90E53D6
:10354800CDE91223CDE91433002943D0F02300F14B
:10355800100508AEADF80630C02341F28832314676
:103568002846089305F012FC28B10123184684F870
:103578005C3024B070BD41F288320DF10601284656
:1035880005F06EFC03460028EFD105224FF4807148
:103598001E93284616924FF080721B9321931F9218
:1035A80002AA9FED1F7BCDE91C13CDE922338DEDD7
:1035B800027B9FED1D7B41F2883316A98DED047BBC
:1035C8009FED1B7B8DED067B05F04CFD0028CCD1D3
:1035D80024B070BD00F1100508AE612341F28832B5
:1035E80031462846089305F0D1FB0028BDD141F2A9
:1035F80088320DF10601284605F0B0FC0028B4D148
:10360800BDF80630204623F0780343F04003ADF8B8
:103618000630FFF73FFF00289ED0A6E7AFF30080F3
:103628000000000001000000100000000100000080
:1036380000000000000040002DE9F04F00234FF487
:10364800807501264FF0807804462DED028BABB0D3
:103658008DF8073013932193299314950E96CDF87E
:103668005C80CDE91533CDE91863CDE91A33CDE98E
:103678002253CDE92433CDE9273306231C9300F0E8
:10368800C5FF072808D004F1100741F288321CA9A9
:10369800384605F07BFB40B10123184684F85C30BE
:1036A8002BB0BDEC028BBDE8F08F4FF0020A4FF053
:1036B800020B4FF0050941F2883308AA1CA93846C5
:1036C800CDF89480CDF870909FED2D8BCDE908ABA7
:1036D8004FF0000A4FF4800B8DED0A8BCDE90CAB4F
:1036E80005F0C0FC0028D7D141F2883238460EA92F
:1036F80005F04CFB0028CFD1402341F288320DF170
:10370800070138468DF8073005F0AAFB0028C3D119
:1037180041F288330EA902AA3846CDF83890CDF880
:103728005C809FED197B8DED048BCDE906AB8DEDAB
:10373800027B05F097FC03460028ADD1CDF87090C8
:103748004FF00109CDF894804FF00008219308AAA2
:1037580029931CA938462295CDE92333CDE927338F
:1037680041F288338DED0A8BCDE90CABCDE90889A0
:1037780005F078FC002893D0304684F85C608FE729
:1037880010000000010000004000000040000000A0
:103798002DE9F043624CA3B00D46046000F036FFFB
:1037A800072800F0A980286823466968AA6807C323
:1037B8001E46AB8926F8043B3046257B677B05F01F
:1037C800C7FAE0B9574B012D4FF00108E0612361BA
:1037D80014BF4FF480134FF40003C4E9058893FA2B
:1037E800A3F3B3FA83F34FF48079013BC4F8249030
:1037F800C4E90B003046236205F03EFA38B10122D5
:10380800134684F85C20184623B0BDE8F08366238D
:103818000B90139041F2883206A90693CDE90C90DB
:10382800CDE90E00CDE91100304605F0AFFA0028C9
:10383800E5D1992341F2883206A93046069305F06E
:10384800A5FA0028DBD105231C9019906A46149329
:103858004FF08073219014A91D9341F288339FED96
:103868002A7BCDE91A90CDE91F008DED007B9FEDF5
:10387800287B30468DED027B9FED277B8DED047B09
:1038880005F0F0FB0028BAD129462046FFF748FE8C
:103898000028B4D12046FFF7CFFE03460028AED15A
:1038A800002FB0D1189330460027002606AA14A985
:1038B800CDF86890CDE91F33EB2314934FF44063A0
:1038C8001B934FF4005317934FF440431C93A023CA
:1038D8001693062319934FF0805321934FF04073AA
:1038E800CDE906671D9305F035FC034600288AD00C
:1038F800434684F85C8086E701230322184684F84F
:103908005C2023B0BDE8F083000000000100000047
:10391800100000000100000000000000000040004E
:10392800A40D0024005000522DE9F04F8FB0414BF8
:103938000024026800AF9A427C63C7E90944C7E9DA
:103948000B4403D03C37BD46BDE8F08F3A4B40F6F8
:1039580009213A48EB46D3F8D42007F11C0607F1B1
:10396800220A4FF0020942F480424FF00308C3F8DC
:10397800D420D3F8D42002F48042BA60BA68D3F8CD
:10398800E02042F04002C3F8E020D3F8E02002F043
:103998004002FA60FA68D3F8E02042F02002C3F847
:1039A800E020D3F8E02002F020023A613A69D3F827
:1039B800E02042F01002C3F8E020D3F8E02002F043
:1039C80010027A617A69D3F8E02042F00202C3F863
:1039D800E020D3F8E030F86103F002033984BB61DA
:1039E800174B7B60BB697B6853F8040F7B6000F062
:1039F80091FF7B680546186800F094FF16F8013BB4
:103A0800786207F124012846C7F830807B63C7E94C
:103A18000A9403F00DFA5645E5D100225C201146C0
:103A280001F0A4FE5C2001F0DFFE3C37DD46BD4618
:103A3800BDE8F08F00500052004402580A0A0909F4
:103A4800000E0024114B02689A4200D07047104AB9
:103A580070B5D2F8D4300F4C23F4804304F1180623
:103A6800C2F8D43054F8040F00F054FF054620681B
:103A780000F058FF0146284603F01AFBB442F1D182
:103A88005C20BDE8704001F0BDBE00BF0050005290
:103A980000440258000E0024014805F0E7BB00BFAF
:103AA800B40D0024084B1A1D981D03F1080110B429
:103AB8009C1C9A6603F10A02C3E91834C3E91B0186
:103AC8005DF8044B5A677047A40D002438B50368A5
:103AD80071B9026A00F1280500F5AC74012A0CBF1F
:103AE800002140218BBB1D4B5722C0F858310DE0F7
:103AF800426A00F1C00500F5E874012A0CBF0021F4
:103B08004021EBB1164B5A22C0F8D0310023204691
:103B1800C4E901214FF480524FF48061636262610D
:103B28004FF48042C4E903314FF48073C4E906239B
:103B38004FF40033236202F0A3F958B1FFBEFEE749
:103B4800084B5822C0F8D031E0E7074B5922C0F89B
:103B58005831DBE7C5E92044A56338BD10000240B1
:103B68007000024028000240580002402DE9F0434E
:103B7800821D05468BB0031D05F10A010830CDE909
:103B8800052305F10C02AB69CDE907010992002B69
:103B98003DD0EB69B3FA83F84FEA581801230222A3
:103BA80005AE0AAF4FF006090393CDE9012356F895
:103BB800044B2B792278934216D02B68F3B1012B52
:103BC80002D1F2B10A230493204600F0ABFE03466B
:103BD8002046009300F09EFE694603F029F9BE4294
:103BE800E5D10BB0BDE8F083697963789942E4D1F7
:103BF800B8F1000FF3D02B68002BE0D1CDF810906E
:103C0800E2E76378022B14BF0A230823DBE74FF0AF
:103C18000108C3E7534A0368934230B505468BB0A1
:103C280055D02032934252D04F4A934204D020328A
:103C3800934201D00BB030BD4C4C4D48D4F8E03025
:103C480043F00103C4F8E030D4F8E03003F0010396
:103C58000593059BD4F8E03043F00803C4F8E0303E
:103C6800D4F8E03003F008030693069BD4F8E0305C
:103C780043F04003C4F8E030D4F8E03003F04003E8
:103C88000793079BD4F8F03043F40003C4F8F030EE
:103C9800D4F8F03003F400030893089BFFF766FF9D
:103CA800D4F8D830296843F001032F4A3048C4F8C3
:103CB800D830891AD4F8D83018BF012103F001038D
:103CC8000993099B0BB0BDE83040FFF7FFBE274CB6
:103CD8002848D4F8E03043F00103C4F8E030D4F8C1
:103CE800E03003F001030093009BD4F8E03043F088
:103CF8001003C4F8E030D4F8E03003F01003019367
:103D0800019BD4F8E03043F04003C4F8E030D4F825
:103D1800E03003F040030293029BD4F8F03043F400
:103D28008003C4F8F030D4F8F03003F48003039330
:103D3800039BFFF71BFFD4F8D830296843F0010331
:103D4800084A0C48C4F8D830891AD4F8D83018BFB3
:103D5800012103F001030493049B0BB0BDE830403C
:103D6800FFF7B4BE04580140045C01400044025807
:103D7800781000241C0E0024014802F007BD00BF83
:103D8800740F0024014802F001BD00BFEC0F0024AD
:103D9800014802F0FBBC00BFD0110024014802F02A
:103DA800F5BC00BF481200241A4A0368934210B4B5
:103DB8000BD02032934208D0174A934216D02032B3
:103DC800934213D05DF8044B7047144B0022D3F88C
:103DD8005442C3F85822002CF4D0D3F84802D3E94F
:103DE800931223465DF8044B520818470B4B0022E8
:103DF800D3F8B044C3F8B424002CE3D0D3F8AC24EF
:103E0800D3F8A814D3F8A404520823465DF8044B49
:103E1800184700BF04580140045C01401C0E0024F0
:103E2800184A0368934210B40BD02032934208D04A
:103E3800154A934217D02032934214D05DF8044BB0
:103E48007047124BD3E994245208C3F85822002C27
:103E5800F4D0D3E99201234601EB820100EB820002
:103E68005DF8044B1847094BD3F8AC24D3F8B04499
:103E78005208C3F8B424002CE0D0D3F8A814D3F81F
:103E8800A404E8E704580140045C01401C0E002427
:103E98002DE9F04F0C684FF41776754F87B004FB87
:103EA80006F6012C07EB060AC0F800A000F3A08074
:103EB8000D468E464FF00008D44669A3D3E9002387
:103EC80069A1D1E90001CDE9022306ABCAF8508205
:103ED80003EB8403CDE9040153F810BC53F8083C04
:103EE800CAE992880193BEE80F00ACE80F00BEE86B
:103EF8000F00ACE80F00019B9EE80300CAF828B049
:103F0800CAF8C0308CE803002B69042B0CD8DFE812
:103F180003F0737D879103004FF41773554A03FB31
:103F280004739A64C3F8E020AA692B6A002A43D074
:103F3800002B4FF4177308BF022203FB047318BF4A
:103F48000322DA6201221A63EA696B6A002A40D105
:103F5800191E4FF4177318BF012103FB0473C3E93B
:103F680031126B69022B05D8434A12F80380434A81
:103F780052F823904FF4177306F128004246494639
:103F880003FB04740023384463646363E365C4F883
:103F9800DC30C4F8CC30C4F8F430C4E90F33C4E9D9
:103FA8001533C4E93533C4E93B33022307F000FA7B
:103FB800002849D0FFBEFEE7191E4FF4177318BF3B
:103FC800012103FB0473C3E90B12EA696B6A002A37
:103FD800BED0002B4FF4177308BF022203FB0473F3
:103FE80018BF0322C3F8C4200122C3F8C820B8E7C9
:103FF800012007B0BDE8F08F4FF417734FF4FA5261
:1040080003FB04739A64C3F8E0208DE74FF4177339
:104018004FF47A5203FB04739A64C3F8E02083E7F1
:104028004FF417734FF4FA4203FB04739A64C3F80E
:10403800E02079E74FF417734BF6803203FB0473E3
:104048009A64C3F8E0206FE706F1C00002234246F5
:104058004946384407F0ACF90028CAD0FFBEFEE74D
:1040680004580140045C014024580140245C01408C
:104078001C0E002400770100081B01080C1B010816
:104088000068704770B5046882B015460E46C4F8DB
:104098005032C4E99212069AC4F85422A269012A3D
:1040A80026D0626A012A9AB211D0294604F1C000CA
:1040B800019207F039FA236A019A012B10D0294698
:1040C80004F1280007F030FA002002B070BD04F1B6
:1040D800C000019207F0BAFA236A019A012BEED1C7
:1040E800314604F1280007F0B1FA002002B070BD93
:1040F800226A012A9AB211D0294604F128000192B5
:1041080007F012FA636A019A012B10D0294604F1CC
:10411800C00007F009FA002002B070BD04F12800C1
:10412800019207F093FA636A019A012BEED13146A6
:1041380004F1C00007F08AFA002002B070BD00BF89
:1041480003681B69042B05D8044A02EB830393ED2B
:10415800000A70479FED020A704700BF181B01084C
:1041680000803B470368D3F858027047704700BF88
:1041780008B500F0DFFCBDE8084001F0BFBB00BF98
:10418800064808B503680BB103F064F804480368EF
:104198001BB1BDE8084004F013B808BDE0160024C0
:1041A800D8120024064808B503680BB103F052F88A
:1041B800044803681BB1BDE8084004F001B808BD15
:1041C800E0160024D8120024064808B503680BB18D
:1041D80003F040F8044803681BB1BDE8084003F049
:1041E800EFBF08BDE0160024D8120024364BDA6A67
:1041F800520062D59A6A9A6A9A6A9B6A180600D52A
:1042080000BE314B9B6A990600D500BE2E4B9B6AB7
:10421800DA0600D500BE2C4B9B6A1B0700D500BEF2
:10422800294B9B6A980700D500BE274B9B6AD90784
:1042380000D500BE244B9B6A1A0400D500BE224B51
:104248009B6A9B0400D500BE1F4B9B6AD80400D50F
:1042580000BE1D4B9B6A190500D500BE1A4B9B6A10
:104268005A0500D500BE184B9B6A9B0500D500BEB9
:10427800154B9B6AD80500D500BE134B9B6A990164
:1042880000D500BE104B9B6ADA0100D500BE0E4B6C
:104298009B6A1B0300D500BE0B4B9B6A580300D5D5
:1042A80000BE094B9B6A990300D500BE064B9B6A6A
:1042B800DA0306D400BE00BEFEE7DB6A9B07FAD528
:1042C800F8E700BEF6E700BF00ED00E000F03EBCF6
:1042D80000F042BC0A4B9B6803F17843B3F5003FFA
:1042E8000BD3084B986848B19868012806D098689D
:1042F800022803D09B68032070470120704700BF45
:1043080000ED00E0000080382DE9F041CEB0044611
:104318004C2200210AA80DF09FFB2022002102A8B0
:104328000DF09AFBBC2200211EA80DF095FB02207F
:1043380004F0BAFB2368012B4FF0000354D0534A12
:1043480002250193C820D16A514B21F00101D162A5
:10435800D26A02F0010201929A6942F440429A61DB
:104368009B6903F440430193019B494A93699B0469
:10437800FCD548490224002201268B6A04274FF005
:10438800080823F0030323438B62052316900AA829
:1043980018934FF480331096179419941597CDF805
:1043A8006880CDE91B222122CDE91344CDE90A23F7
:1043B80005F064F800B1FEE73F220323294602A86E
:1043C800CDE9022300220823CDE90423402240231B
:1043D800CDE9062340234FF48062CDE9082305F098
:1043E8007BFB0346B8B1FEE7294A04250093F02079
:1043F8009169264B41F440419161926902F440422F
:104408000092DA6A42F00102DA62DB6A03F0010321
:104418000093009BA9E720224FF4805125934FF485
:1044280040152B9280222D931EA83093269135910A
:104438004FF48071249234920C223394439140F2C9
:10444800271120921022CDF884802A971F96CDE953
:104458002E34CDE93B334FF48033CDE922463193F6
:10446800002446930623CDE93E4527934FF4806305
:10447800094C2C931E94CDE9281205F089FD00B152
:10448800FEE704F037FB4EB0BDE8F08100040058A9
:1044980000480258004402580F130F0370B584B047
:1044A800012401F0D9F94FF480764FF04052194BAE
:1044B80068460025ADF800400396CDE9012301F0D8
:1044C800E9F919224FF0404368468DF80820019316
:1044D8008DF80F40ADF80D608DF801408DF80A5049
:1044E80001F0D8F902230B2268468DF80F508DF899
:1044F80001304FF062538DF808200193ADF80D405C
:104508008DF80A4001F0C6F9042001F0B3F904B0AF
:1045180070BD00BF0E00010330B50D46044685B0DE
:10452800D1E9000184E8030000F0D4FAAB79A3B321
:104538000AF0BCFEFEF758FE09F022FB0AF0AEFBBB
:104548002B798BBB6B799BB1BFF34F8FBFF36F8F09
:104558002A4B0022C3F85022BFF34F8FBFF36F8F4F
:104568005A6942F400325A61BFF34F8FBFF36F8F1D
:104578004FF0FF32002300240025694620480292AC
:104588008DF80C30CDE9004509F01AFF1C4809F0F8
:104598007FFF08F025FF05B030BD2046FFF7B4FEC9
:1045A8002046FFF77BFFC3E7144C0023C4F8843090
:1045B800BFF34F8FD4F8801043F6E07EC1F34E3C32
:1045C800C1F3C9014FEA4C1C0CEA0E000B4640EA45
:1045D8008372013BC4F860225A1CF8D1ACF1200C5C
:1045E8001CF1200FF0D1BFF34F8F636943F4803380
:1045F8006361BFF34F8FBFF36F8FA3E700ED00E058
:10460800D412002405F098BB05F0B2BB1C4B9B6884
:1046180003F17842B2F5003F25D3B3F5803F20D3AC
:1046280003F16042B2F5003F1FD303F15C42B2F5DB
:10463800002F1CD303F17042B2F5902F19D303F168
:104648004842B2F5803F16D303F18042B2F1806F41
:1046580013D303F1E043B3F5000F2CBF0820072064
:1046680070470120704700207047022070470320E0
:10467800704704207047052070470620704700BF28
:1046880000ED00E003480023034A044903600DF0ED
:104698009DB900BFD4120024000000247541000811
:1046A80010B4204C0022204B83B0D4F888101F4847
:1046B80041F47001C4F8881019681D4C41F00101DB
:1046C80019601A61196808401A4918609A61DA6114
:1046D8001A629A62DA621A635A639A63DA631A642C
:1046E8005A64186820F4802018601A66D3F8DC2011
:1046F80042F06042C3F8DC20D3F8DC300193019B20
:1047080023681940B1F1005F03D20B4B0122C3F8B3
:104718000821044B4FF000629A6003B05DF8044B27
:10472800704700BF00ED00E0004402587FEDF6EA54
:104738000010005C0000FFFF0080005100F571715F
:10474800D0F8040408F034BAC1EBC10300EB8303CA
:10475800D0F80404D3F8082208F058BAC1EBC10312
:1047680000EB8303D0F804049A6C08F08DBA00BFFC
:10477800D0F8040408F02CBBC16810B5044619B180
:10478800022900D0FEE70121D4F8040408F00AFB4E
:10479800D4F80404BDE8104008F0DCBA10B50446AB
:1047A800D0F8040408F002FB2268D2F8003E43F077
:1047B8000103C2F8003E236A23B1034A136943F098
:1047C8000603136110BD00BF00ED00E0D0F804043B
:1047D80008F0F6BAD0F8040408F00ABBD0F80404CC
:1047E80008F004BBD0F8040408F004BBD0F80404B3
:1047F80008F002BB9446D0F898021A4608B56346FA
:1048080004F042F8032802D8024B185C08BD0220C5
:1048180008BD00BF3C1B0108D0F8980208B504F099
:10482800C1F8032802D8024B185C08BD022008BD55
:104838003C1B0108D0F8980208B504F0F7F80328E3
:1048480002D8024B185C08BD022008BD3C1B0108B9
:104858000A06D0F8983206D4C1EBC10103EB8101F6
:1048680091F8FE01704701F07F01C1EBC10103EB34
:10487800810191F83E007047D0F8980208B503F01E
:10488800EDFF032802D8024B185C08BD022008BDC2
:104898003C1B0108D0F8980208B504F05BF803281F
:1048A80002D8024B185C08BD022008BD3C1B010859
:1048B800D0F8980208B504F025F8032802D8024B6E
:1048C800185C08BD022008BD3C1B0108D0F8C002D6
:1048D80008F040BDD0F8C00208F054BDD0F8C002BE
:1048E80008F05CBD704700BFD0F8C00208F042BDB8
:1048F800D0F8C00208F042BDD0F8D00308B503F0E4
:1049080069F8032802D8024B185C08BD022008BDCC
:10491800401B0108024B027853F82200704700BF81
:10492800641B0108024B427833F81200704700BF3D
:10493800441B01088CB00A2814D8DFE800F01523BE
:10494800313F4D5B6977859306004D4BD3F8E020E6
:1049580042F48062C3F8E020D3F8E03003F48063C7
:104968000B930B9B0CB07047454BD3F8E02042F0FB
:104978000102C3F8E020D3F8E03003F0010301930B
:10498800019BEFE73E4BD3F8E02042F00202C3F868
:10499800E020D3F8E03003F002030293029BE1E742
:1049A800374BD3F8E02042F00402C3F8E020D3F8F4
:1049B800E03003F004030393039BD3E7304BD3F8B1
:1049C800E02042F00802C3F8E020D3F8E03003F01A
:1049D80008030493049BC5E7294BD3F8E02042F071
:1049E8001002C3F8E020D3F8E03003F01003059379
:1049F800059BB7E7224BD3F8E02042F02002C3F82A
:104A0800E020D3F8E03003F020030693069BA9E7E3
:104A18001B4BD3F8E02042F04002C3F8E020D3F863
:104A2800E03003F040030793079B9BE7144BD3F850
:104A3800E02042F08002C3F8E020D3F8E03003F031
:104A480080030893089B8DE70D4BD3F8E02042F4D0
:104A58008072C3F8E020D3F8E03003F48073099340
:104A6800099B7FE7064BD3F8E02042F40072C3F8B5
:104A7800E020D3F8E03003F400730A930A9B71E74F
:104A880000440258704700BF0F4B1B780BB9012038
:104A9800704710B504464FF47A700C4AB0FBF3F334
:104AA8001068B0FBF3F000F0C1FE0F2C00D808B17D
:104AB800012010BD002221464FF0FF3000F056FEC5
:104AC800034B00201C6010BD680000246000002417
:104AD8006C00002438B50320124D00F035FE124C4E
:104AE80004F05AFF114A12499369C3F30323CB5CBC
:104AF80003F01F0320FA03F30E202B60926902F0E3
:104B08000F028A5C02F01F02D3402360FFF7BCFF4C
:104B180010B10124204638BD0446FFF7B3FF2046F4
:104B280038BD00BF6000002464000024004402581F
:104B38002C1B0108034A044B11681B780B441360B3
:104B4800704700BFA419002468000024014B1868AE
:104B5800704700BFA419002438B50446FFF7F6FFD4
:104B68000546631C02D0044B1B781C44FFF7EEFF7C
:104B7800431BA342FAD338BD68000024014B1868D0
:104B8800000C70470010005C704700BF806B08B5D0
:104B9800FFF7FAFF08BD00BF836B5A6D12F0500F84
:104BA8005A6D10B51DD1196842F400725A650A6829
:104BB80012F0080FCA681BD012F4406F0DD1CA68F2
:104BC80094040AD45A6D22F480725A655A6DD1043D
:104BD80003D45A6D42F001025A651846FDF73AFDB2
:104BE80010BDD2060AD4DB6CBDE81040DB6C184758
:104BF8009007E7D01846FDF72DFDF1E71846FDF7B9
:104C0800CDFD10BD806B08B5436D43F0400343658F
:104C1800836D43F004038365FDF7C0FD08BD00BF45
:104C2800F0B5002283B0019290F85020012A00F0DC
:104C38001C81034601201A6883F8500094686407B1
:104C480000F18A800C68C4F31305002D40F08F80B2
:104C5800C4F38464A0404D684FF01F0ED6694FEA34
:104C6800951C30430CF00C0CD06105F01F0002F1CC
:104C7800300584400EFA00FE5CF8050020EA0E00BC
:104C880004434CF80540906840076ED4956815F0C9
:104C9800080547D10C68072002F11406B94F4FEAFE
:104CA800D45CC4F304540CF0040C00FA04FE8868C5
:104CB80000FA04F45CF8060020EA0E0020434CF8E1
:104CC8000600386800F07040B0F1805F00F0C580E1
:104CD800D068D668C70600F1E880C6F3820648693E
:104CE800760000FA06F60F69042F00F0C18002F181
:104CF8006004086854F827C000F0F8400CF0004C35
:104D080040EA0C00304344F82700487E0E69012829
:104D180054F8260008BF4FF0004520F00040054336
:104D280044F826509068C40714D4CE68086806F082
:104D38001807954CD2F8C050FC40C0F31307044044
:104D480025EA07052C43C2F8C040904CA64246D03D
:104D5800002816DB002003E05A6D42F020025A6555
:104D6800002283F8502003B0F0BD9068DAE794FA87
:104D7800A4F5B5FA85F5C4F3846405F01F05A840C9
:104D880069E783498A4200F0B68001F580718A425A
:104D980000F0B1807F4D804CA968A46801F0E076EE
:104DA800E44304F00104002C00F0B4807B4CA042E2
:104DB80000F0FC807A4CA04200F01A81794CA042A5
:104DC800C8D14902C6D474498A42C3D1AA6800200E
:104DD80022F0E072324342F48002AA60C0E7002F5A
:104DE8006AD090FAA0F4B4FA84F4013404F01F04F1
:104DF800092C00F2A48090FAA0F4B4FA84F490FA92
:104E0800A0F5B5FA85F5013401260135A40605F0AB
:104E18001F0504F0F84406FA05F52C4390FAA0F0B3
:104E2800B0FA80F0304400F01F0000EB40000005AD
:104E38002043C60D02F11405C0F30450072406F000
:104E4800040604FA00F7745924EA07048F6807FA7D
:104E580000F02043705108687AE7D6684869C6F3BD
:104E68008206760000FA06F63DE7022003B0F0BDA0
:104E7800106E0C6800F0F840A506B0EB846F30D0D7
:104E8800506E00F0F840854226D0906E00F0F84051
:104E980085422BD0D06E00F0F84085427FF442AFB7
:104EA800D06E20F00040D0663CE77608486906F0EE
:104EB800080600FA06F616E7800E441C04F01F06E2
:104EC800092E2DD8A406012004F0F844B04004436C
:104ED80006EB46000005ABE7506E20F00040506638
:104EE800D3E7106E20F000401066C9E7906E20F0FE
:104EF80000409066CEE7264C2B4D04F58074A968D7
:104F080054F8F86CA468344301F0E076E44304F004
:104F1800010448E75A6D012042F020025A651FE754
:104F280006EB4600A50601241E3805F0F84504FAEC
:104F380006F60005354340F00070284379E790FAFB
:104F4800A0F5B5FA85F590FAA0F4B4FA84F4013521
:104F580001260134AD0604F01F0405F0F84506FAF1
:104F680004F4254390FAA0F4B4FA84F4344404F029
:104F78001F0404EB4404A4F11E00000540F0007077
:104F8800DBE700BF0010005CFFFF0F000000FF47D9
:104F9800002002400063025800600258000084CBE1
:104FA800000052C70000B8CF0023024008023FF5B6
:104FB800D1AE17498A427FF4CDAE164AA968126865
:104FC800154821F0E07192093143A0FB020241F437
:104FD80000019209A96052000192019A002A3FF447
:104FE800B9AE019A013A0192019A002AF9D1B1E6C3
:104FF80011F080707FF4AEAE05498A427FF4AAAE04
:10500800AA6822F0E072324342F08072AA60A7E6F2
:105018000060025860000024632D3E0503689A680A
:10502800D20701D5002070479968214A114270B50E
:10503800044608D0636D012043F010036365A36D37
:105048000343A36570BD99681A4A0A4042F00102F9
:105058009A60FFF77BFD2368174A054693421ED0E6
:1050680002F5807293421AD0144A9268114E0AE0EF
:105078009A68324042F001029A60FFF767FD401BD0
:105088000228D7D823681A68D2070FD49A68D1079C
:10509800EED5FFF75BFD401B0228F3D9CAE7084AA3
:1050A8009268D006E2D0074A9342DFD1002070BD53
:1050B8003F000080C0FFFF7F0020024000630258CD
:1050C80000230240002102402DE9F0413A4D0446F8
:1050D80000680F461646A84219D0384B984216D099
:1050E800374DAB688068420716D494F85020012ADF
:1050F80012D003F01F080122B8F1090F84F85020DC
:105108000DD90023012084F85030BDE8F0812D4DE1
:10511800AB6880684207E8D50220BDE8F08140F21C
:10512800212323FA08F3DB4313EA0205E9D12046D9
:10513800FFF774FF002839D1626D234B21681340B3
:1051480043F480736365B8F1000F02D01B4B99429A
:1051580003D0636D23F480136365636D13F4805388
:1051680028D0A36D23F00603A365E06C3346174DE2
:105178003A464031C563164D0564164DC5641C2575
:1051880041F8405C002584F8505051F83C5C45F0EB
:10519800100541F83C5C01F031F822680E4B91682B
:1051A8000B4043F004039360BDE8F08184F850504D
:1051B800BDE8F081A365D8E7002002400021024045
:1051C8000063025800230240FEF0FFFFA14B0008D5
:1051D800954B00080D4C0008C0FFFF7F38B50368E9
:1051E8009A68910702D59B68002038BD9A68D20753
:1051F80023D59A68044602F00D02012A08D0636D8F
:10520800012043F010036365A36D0343A36538BD14
:10521800986803210A4A024042F002029A60196023
:10522800FFF794FC054604E0FFF790FC401B0228BA
:10523800E5D823689B68DB07F6D4002038BD00BF9B
:10524800C0FFFF7F38B5574A04460368934226D00B
:1052580002F58072934222D0534B9B6813F4403F6F
:1052680022D004F053FD63680546B3F5003F00F013
:105278008880B3F5403F70D0B3F5803F00F081805F
:10528800FFF77CFC41F2030398422DD8474B9D421F
:105298005DD92268936843F48073936038BD444BAA
:1052A8009B6813F4403FDCD14FF4002005F0FAFD71
:1052B80063680546B3F5101F6DD008D8B3F5E01F35
:1052C80055D01AD9B3F5001FDAD14509D8E7B3F597
:1052D800201F4AD0B3F5301FD2D1FFF74FFC41F25F
:1052E8000303984233D92D0A324B9D421DD82268B8
:1052F800936823F44073936038BDB3F5801F06D0DC
:105308000AD9B3F5A01F02D0B3F5C01FB8D19B0CC2
:105318005B00B5FBF3F5B3E7B3F5002FF7D023F443
:105328000022B2F5802FF2D0AAE7234B234A2B4460
:1053380093421ED9224B234A2B44934222689368F6
:105348002BD823F4407343F40073936038BD22686C
:10535800936823F48073936038BD8508FFF70EFCCB
:1053680041F203039842BFD890E7C50988E70509C9
:1053780086E72268936823F4407343F4807393604C
:1053880038BD1B0CB5FBF3F5FFF7F8FB41F203033F
:105398009842A9D87AE7850972E743F44073936085
:1053A80038BD00BF0020024000630258002D3101C3
:1053B80000230240105E5F00EFA1A0FF0F5E5F00B8
:1053C800DF4341FF1FBCBE0030B5002383B001930B
:1053D800002800F0D080456D0446002D00F0BA800A
:1053E800226893689B0003D59168714B0B409360CA
:1053F8009368DD0015D46F4B90686F491B680140B6
:105408006E489B0941F08051A0FB030391609B0902
:105418000193019B2BB1019B013B0193019B002B45
:10542800F9D19368D80024D4636D012543F01003A3
:105438006365A36D2B43A365936813F0040F636D35
:105448001DD1D9061BD4636D23F4817343F0020385
:1054580063659368DB0728D4594B9A4217D003F544
:1054680080739A4213D0574B9B68D9071DD4564A6C
:1054780015E09368002513F0040F636DE1D0636DA8
:10548800012543F010032846636503B030BD4C4A3C
:105498004E4B92689B681343D80706D44C4A9368CE
:1054A800616823F47C130B439360FFF767FB41F2B9
:1054B8000303A1689842237F52D894F815C01A04B0
:1054C800206B42EA4C3202430A43012B03D1236A80
:1054D800013B42EA4342636A23B103F47873A16A49
:1054E8000B431A4323683B49D86801400A43DA60F2
:1054F8009A6812F0040F9A681CD112071AD4D86857
:10550800354A217D024042EA8132E16A0A43DA6083
:1055180094F83820012A3AD01A6922F001021A6157
:105528001A692046616B22F070420A431A61FFF73C
:1055380089FE2368E268012A21D01A6B22F00F0243
:105548001A63636D284623F0030343F00103636580
:1055580003B030BDFDF72CF8A56584F850503FE73F
:105568001029AAD1617D1A0442EA4132216B0A430B
:1055780042F01C02A9E70125284603B030BD196B8B
:10558800A26921F00F01013A0A431A63D9E7D4E965
:10559800102118690A43114901400A43A16C0A43C2
:1055A800E16B42EA014242F001021A61B8E700BF2A
:1055B800C0FFFF5F60000024C0FFFF6F632D3E0542
:1055C8000020024000600258006302580021024097
:1055D8000023024003C0F0FFFCBFFFFF1EF800FCE1
:1055E800F0B5002383B0019390F85030012B40D0E0
:1055F800012304460E46154680F85030FFF7EEFDAD
:10560800E8B9676D05F080421B4B06F480311B4DED
:105618003B401B4F43F00203636523689E68354097
:1056280015430D4345F000459D609A68002A0FDB3D
:10563800636D23F0030343F00103636503E0636DC7
:1056480043F010036365002384F8503003B0F0BDC5
:10565800019A01320192019ABA42E6D9636D002299
:10566800012023F0120384F8502043F010036365EF
:10567800ECE7022003B0F0BDFDEEFFFFC0FFFE3FE8
:10568800FF955A55F0B490F850200E68012A49D079
:105698000346294A01201C6883F85000944208D028
:1056A8005A6D002142F0200283F850105A65F0BC70
:1056B8007047224DAA6852070AD5A2685A6D012080
:1056C80042F020025A65002283F85020F0BC70474F
:1056D800A06810F00400F1D1C6B1DFF868C04F68C7
:1056E800DCF8082022F440423A43CCF80820A468A9
:1056F800AA682243D40713D48A68DCF80810164332
:105708000F4A0A401643CCF80860DCE70D498A685E
:1057180022F440428A60A068AA680243D00704D5F0
:105728000020D0E70220F0BC70478C683046044A5D
:1057380022408A60C7E700BF0020024000210240E3
:10574800E0F0FFFF0023024006494FF6FF0C00027D
:10575800054BCA6800F4E06002EA0C0210430343F8
:10576800CB60704700ED00E00000FA051B4BDB68DA
:10577800C3F3022300B5C3F1070E03F1040CBEF115
:10578800040F28BF4FF0040EBCF1060F1AD9033BD3
:105798004FF0FF3C0CFA03FC22EA0C024FF0FF3CEE
:1057A80000280CFA0EFC21EA0C0101FA03F141EA87
:1057B80002010ADB09010A4BC9B2034483F800134A
:1057C8005DF804FB00221346E8E700F00F0009012A
:1057D800044BC9B2034419765DF804FB00ED00E000
:1057E80000E100E0FCEC00E0002807DB00F01F010E
:1057F80001234009024A8B4042F82030704700BF1D
:1058080000E100E000280DDB4309012200F01F0041
:105818000549203302FA00F041F82300BFF34F8F07
:10582800BFF36F8F704700BF00E100E0431EB3F184
:10583800807F0CD24FF0E022002006494FF0F00C98
:105848005361072381F823C09061136170470120D9
:10585800704700BF00ED00E0BFF35F8F044B0021ED
:105868005A6A22F480325A62C3F89410704700BF13
:1058780000ED00E0064B40F00100C3F894005A6ABE
:1058880042F480325A62BFF34F8FBFF36F8F704775
:1058980000ED00E0174A4378C2F89830017821B348
:1058A800436800B5C2F89C30C37A90F80CC01B0658
:1058B80090F80FE043EA0C7390F80AC00B43817B21
:1058C80043EACC4390F80DC043EA8C4390F809C0F2
:1058D80043EA4143017A43EA0E4343EA0C2343EA8D
:1058E8004103C2F8A0305DF804FBC2F89C10C2F86E
:1058F800A010704700ED00E0704700BF08B5FFF743
:10590800FBFF08BD88B110B50379044603F0FF0218
:105918003BB1002302210122217118462361227123
:1059280010BD4271FCF73CFFF3E70120704700BF50
:10593800F8B504464079069F012853D00D46114614
:10594800012226686271022222713DBBA068042FE1
:10595800374ADFF8E4C0C2633268C0F840C042F496
:105968008052DFF8D8C0C0F84CC0326042D0082F4F
:105978003DD0002F38D02A46376847F400573760A3
:1059880000F03CFC0023637138BB236805F010016C
:1059980001251A688D4015431D60F8BDE068042F85
:1059A800244ADFF89CC0C2633268C0F840C042F0A5
:1059B8008052DFF890C0C0F84CC032602FD0082F5A
:1059C80024D0D7B13768002247F00057376000F07D
:1059D80015FC002363710028D7D0236943F0040322
:1059E8002361F8BD0220F8BD06F10802C4E706F1FC
:1059F8001002C1E706F10C02BEE7376806F114028F
:105A080047F00057376000F0F9FBE2E7376806F126
:105A18001C0247F00057376000F0F0FBD9E7376801
:105A280006F1180247F00057376000F0E7FBD0E7AF
:105A3800AD5A0008895C0008BD5A0008CD5A000814
:105A4800995C0008A55C000838B54FF4805C0368D1
:105A580001F0100E04461D6801200CFA0EFC00FA35
:105A68000EF025EA0C051D601A6822EA00021A6089
:105A780071B9A06800F0E2FC2268136823F40053AF
:105A8800136010B10423237138BD0123237138BD7D
:105A9800E06800F0D3FC2268136823F00053136019
:105AA800EFE700BF10B5846B2046FCF741FF0123E8
:105AB800237110BD806B08B5FCF76AFF08BD00BFF5
:105AC800704700BF10B5846B2369204643F0040378
